:100000000C942A000C9447000C9447000C94470071
:100010000C9447000C9447000C9447000C94470044
:100020000C9447000C9447000C94A5020C944700D4
:100030000C9447000C9447000C9447000C94470024
:100040000C9447000C9447000C9447000C94470014
:100050000C94470011241FBECFE5D8E0DEBFCDBF12
:1000600010E0A0E6B0E0EAEAF5E002C005900D92EB
:10007000A036B107D9F720E0A0E6B0E001C01D929C
:10008000A436B207E1F70E9433020C94D3020C9419
:100090000000CF93DF9300D0CDB7DEB789836A83AA
:1000A0008981883090F58A818130A9F48BE390E0D2
:1000B0002BE330E0F9012081622F2981422F50E0AB
:1000C00021E030E002C0220F331F4A95E2F7262BD1
:1000D000FC012083CDC08A81882309F0C9C08BE34D
:1000E00090E02BE330E0F9012081622F2981422F3B
:1000F00050E021E030E002C0220F331F4A95E2F7C2
:1001000020952623FC012083B3C089818830C0F16B
:1001100089818031A8F58981885089838A818130DD
:10012000A9F488E390E028E330E0F9012081622F10
:100130002981422F50E021E030E002C0220F331F1E
:100140004A95E2F7262BFC0120838FC08A81882301
:1001500009F08BC088E390E028E330E0F9012081CA
:10016000622F2981422F50E021E030E002C0220FAF
:10017000331F4A95E2F720952623FC01208375C0A2
:1001800089818031C0F189818831A8F589818051C8
:1001900089838A818130A9F485E390E025E330E00A
:1001A000F9012081622F2981422F50E021E030E0C7
:1001B00002C0220F331F4A95E2F7262BFC01208351
:1001C00056C08A81882309F052C085E390E025E378
:1001D00030E0F9012081622F2981422F50E021E097
:1001E00030E002C0220F331F4A95E2F72095262304
:1001F000FC0120833CC089818831D0F18981803223
:10020000B8F58981885189838A818130A9F482E394
:1002100090E022E330E0F9012081622F2981422F12
:1002200050E021E030E002C0220F331F4A95E2F790
:10023000262BFC0120831CC08A818823C9F482E319
:1002400090E022E330E0F9012081622F2981422FE2
:1002500050E021E030E002C0220F331F4A95E2F760
:1002600020952623FC01208303C0000001C000006C
:1002700000000F900F90DF91CF910895CF93DF93FF
:1002800000D0CDB7DEB789836A838981883090F545
:100290008A818130A9F48AE390E02AE330E0F90111
:1002A0002081622F2981422F50E021E030E002C0FE
:1002B000220F331F4A95E2F7262BFC012083CDC085
:1002C0008A81882309F0C9C08AE390E02AE330E0FC
:1002D000F9012081622F2981422F50E021E030E096
:1002E00002C0220F331F4A95E2F720952623FC0116
:1002F0002083B3C089818830C0F189818031A8F51D
:100300008981885089838A818130A9F487E390E0CC
:1003100027E330E0F9012081622F2981422F50E04C
:1003200021E030E002C0220F331F4A95E2F7262B6E
:10033000FC0120838FC08A81882309F08BC087E36A
:1003400090E027E330E0F9012081622F2981422FDC
:1003500050E021E030E002C0220F331F4A95E2F75F
:1003600020952623FC01208375C089818031C0F14E
:1003700089818831A8F58981805189838A8181307A
:10038000A9F484E390E024E330E0F9012081622FB6
:100390002981422F50E021E030E002C0220F331FBC
:1003A0004A95E2F7262BFC01208356C08A818823D8
:1003B00009F052C084E390E024E330E0F9012081A9
:1003C000622F2981422F50E021E030E002C0220F4D
:1003D000331F4A95E2F720952623FC0120833CC079
:1003E00089818831D0F189818032B8F5898188513D
:1003F00089838A818130A9F481E390E021E330E0B0
:10040000F9012081622F2981422F50E021E030E064
:1004100002C0220F331F4A95E2F7262BFC012083EE
:100420001CC08A818823C9F481E390E021E330E095
:10043000F9012081622F2981422F50E021E030E034
:1004400002C0220F331F4A95E2F720952623FC01B4
:10045000208303C0000001C0000000000F900F9037
:10046000DF91CF910895CF93DF93CDB7DEB761E0F1
:100470008CE00E943E0161E08CE00E94490061E056
:100480008CE00E94490068EE73E080E090E00E94FA
:10049000540260E08CE00E94490068EE73E080E066
:1004A00090E00E945402EBCFCF93DF93CDB7DEB73D
:1004B00028970FB6F894DEBF0FBECDBF6D837E8345
:1004C0008F83988719821A821B821C8283E590E0B1
:1004D000FC0110828CE590E02AEFFC0120838D81E5
:1004E0009E81AF81B8858093600090936100A09356
:1004F0006200B093630089E590E029E530E0F901FE
:1005000020812260FC012083789482E590E0FC0148
:10051000108283E590E02BE8FC01208300008091AD
:10052000600090916100A0916200B0916300892BFE
:100530008A2B8B2BA1F7000028960FB6F894DEBF0C
:100540000FBECDBFDF91CF9108951F920F92009003
:100550005F000F9211248F939F93AF93BF93CF931C
:10056000DF93CDB7DEB78091600090916100A091DC
:100570006200B09163000197A109B1098093600006
:1005800090936100A0936200B09363000000DF913C
:10059000CF91BF91AF919F918F910F9000925F008B
:0A05A0000F901F901895F894FFCFFC
:00000001FF
