S010000070726F6A656374732E73726563AA
S11300000C942A000C9447000C9447000C9447006D
S11300100C94D0060C9447000C9447000C944700B1
S11300200C9447000C9447000C9499060C944700D8
S11300300C9447000C9447000C9447000C94470020
S11300400C9447000C9447000C9447000C94470010
S11300500C94470011241FBECFE5D8E0DEBFCDBF0E
S113006010E0A0E6B0E0ECE5FEE002C005900D92E1
S1130070AA36B107D9F720E0AAE6B0E001C01D9284
S1130080AE36B207E1F70E949D030C942C070C9442
S11300900000CF93DF9300D0CDB7DEB789836A83A6
S11300A089818830C0F189818031A8F5898188509F
S11300B089838A818130A9F488E390E028E330E0E1
S11300C0F9012081622F2981422F50E021E030E0A4
S11300D002C0220F331F4A95E2F7262BFC0120832E
S11300E0C4C08A81882309F0C0C088E390E028E373
S11300F030E0F9012081622F2981422F50E021E074
S113010030E002C0220F331F4A95E2F720952623E0
S1130110FC012083AAC089818031C0F189818831A2
S1130120A8F58981805189838A818130A9F485E386
S113013090E025E330E0F9012081622F2981422FEC
S113014050E021E030E002C0220F331F4A95E2F76D
S1130150262BFC0120838BC08A81882309F087C069
S113016085E390E025E330E0F9012081622F2981C5
S1130170422F50E021E030E002C0220F331F4A95A5
S1130180E2F720952623FC01208371C08981883100
S1130190C0F189818032A8F58981885189838A8157
S11301A08130A9F482E390E022E330E0F901208178
S11301B0622F2981422F50E021E030E002C0220F5B
S11301C0331F4A95E2F7262BFC01208352C08A8113
S11301D0882309F04EC082E390E022E330E0F90185
S11301E02081622F2981422F50E021E030E002C0BB
S11301F0220F331F4A95E2F720952623FC01208322
S113020038C089818830B0F58A818130A9F48BE3C4
S113021090E02BE330E0F9012081622F2981422F05
S113022050E021E030E002C0220F331F4A95E2F78C
S1130230262BFC0120831EC08A818823D9F48BE3FA
S113024090E02BE330E0F9012081622F2981422FD5
S113025050E021E030E002C0220F331F4A95E2F75C
S113026020952623FC01208305C0000003C0000064
S113027001C0000000000F900F90DF91CF9108950E
S1130280CF93DF9300D0CDB7DEB78A838A818830DD
S1130290C0F08A818031A8F48A8188508A8386E3F9
S11302A090E0FC018081882F90E02A81222F30E0A9
S11302B002C0959587952A95E2F781708983898193
S11302C04BC08A818031C0F08A818831A8F48A8148
S11302D080518A8383E390E0FC018081882F90E041
S11302E02A81222F30E002C0959587952A95E2F75E
S11302F081708983898130C08A818831C0F08A8184
S11303008032A8F48A8188518A8380E390E0FC01DA
S11303108081882F90E02A81222F30E002C09595B9
S113032087952A95E2F781708983898115C08A812E
S1130330883090F489E390E0FC018081882F90E07C
S11303402A81222F30E002C0959587952A95E2F7FD
S113035081708983898100C00F900F90DF91CF91C4
S11303600895CF93DF9300D0CDB7DEB789836A8336
S113037089818830C0F189818031A8F589818850CC
S113038089838A818130A9F487E390E027E330E010
S1130390F9012081622F2981422F50E021E030E0D1
S11303A002C0220F331F4A95E2F7262BFC0120835B
S11303B0C4C08A81882309F0C0C087E390E027E3A2
S11303C030E0F9012081622F2981422F50E021E0A1
S11303D030E002C0220F331F4A95E2F7209526230E
S11303E0FC012083AAC089818031C0F189818831D0
S11303F0A8F58981805189838A818130A9F484E3B5
S113040090E024E330E0F9012081622F2981422F1A
S113041050E021E030E002C0220F331F4A95E2F79A
S1130420262BFC0120838BC08A81882309F087C096
S113043084E390E024E330E0F9012081622F2981F4
S1130440422F50E021E030E002C0220F331F4A95D2
S1130450E2F720952623FC01208371C0898188312D
S1130460C0F189818032A8F58981885189838A8184
S11304708130A9F481E390E021E330E0F9012081A7
S1130480622F2981422F50E021E030E002C0220F88
S1130490331F4A95E2F7262BFC01208352C08A8140
S11304A0882309F04EC081E390E021E330E0F901B4
S11304B02081622F2981422F50E021E030E002C0E8
S11304C0220F331F4A95E2F720952623FC0120834F
S11304D038C089818830B0F58A818130A9F48AE3F3
S11304E090E02AE330E0F9012081622F2981422F34
S11304F050E021E030E002C0220F331F4A95E2F7BA
S1130500262BFC0120831EC08A818823D9F48AE328
S113051090E02AE330E0F9012081622F2981422F03
S113052050E021E030E002C0220F331F4A95E2F789
S113053020952623FC01208305C0000003C0000091
S113054001C0000000000F900F90DF91CF9108953B
S1130550CF93DF93CDB7DEB760E085E10E94B101B0
S113056060E086E10E94B10160E087E10E94B10190
S113057061E085E10E94490061E086E10E94490052
S113058061E087E10E94490061E082E10E94B101DB
S113059061E083E10E94B10161E084E10E94B10164
S11305A00000DF91CF910895CF93DF9300D000D066
S11305B01F92CDB7DEB719821A8282E08D8360E084
S11305C082E10E94490060E083E10E94490060E00A
S11305D084E10E9449008AC060E082E10E944900EF
S11305E061E083E10E94490061E084E10E944900E6
S11305F085E10E944001882329F41C821B8281E04A
S11306008A837BC086E10E944001882331F481E023
S11306108C831B8281E08A8370C087E10E94400141
S1130620882331F482E08C831B8281E08A8365C055
S113063061E082E10E94490060E083E10E94490098
S113064061E084E10E94490085E10E944001882321
S113065031F41C8281E08B8381E08A834EC086E181
S11306600E944001882339F481E08C8381E08B83EC
S113067081E08A8342C087E10E944001882339F4E3
S113068082E08C8381E08B8381E08A8336C061E0E1
S113069082E10E94490061E083E10E94490060E038
S11306A084E10E94490085E10E944001882331F4DD
S11306B01C8282E08B8381E08A831FC086E10E94D2
S11306C04001882339F481E08C8382E08B8381E0CC
S11306D08A8313C087E10E944001882339F482E0B1
S11306E08C8382E08B8381E08A8307C08D81815073
S11306F08D838D81882309F06FCF8A81813099F4AD
S11307008B81282F30E08C81482F50E0C901880F5D
S1130710991F820F931F840F951F805A9F4FFC01CE
S11307208081898301C0198289810F900F900F9075
S11307300F900F90DF91CF910895CF93DF9300D066
S1130740CDB7DEB70E94E5030E94A802198278940F
S11307500E94D4028A838A81882311F08A81898342
S11307608981882F90E0A0E0B0E0BC01CD010E9417
S1130770110485E090E00E942006EACFCF93DF9336
S11307801F92CDB7DEB7898361E089810E94490059
S113079000000F90DF91CF910895CF93DF93CDB7F1
S11307A0DEB760E08AE10E94490060E08BE10E94CC
S11307B0490060E08EE10E94490060E08FE10E9400
S11307C049000000DF91CF910895CF93DF93CDB717
S11307D0DEB761E088E00E94B10161E089E00E9437
S11307E0B10161E08AE00E94B10161E08BE00E9406
S11307F0B10161E08AE10E94B10161E08BE10E94F4
S1130800B10161E08EE10E94B10161E08FE10E94DB
S1130810B10161E08CE10E94B1010000DF91CF9150
S11308200895EF92FF920F931F93CF93DF93CDB769
S1130830DEB72E970FB6F894DEBF0FBECDBF6B8721
S11308407C878D879E8784E089831A82E4C18B85A7
S11308509C85AD85BE85883E9340A105B10508F40D
S113086077C08B859C85AD85BE8580319742A10577
S1130870B10508F06DC08FE10E94BE038B859C8595
S1130880AD85BE8528EE33E040E050E0BC01CD01EB
S11308900E94F006DA01C9018B839C83AD83BE8379
S11308A08B8181708F838B819C81AD81BE81B69554
S11308B0A79597958795817088878B819C81AD8159
S11308C0BE81B695A79597958795B695A795979563
S11308D08795817089878B819C81AD81BE81689465
S11308E012F8B695A795979587951694D1F78170C8
S11308F08A876F8188E00E944900688589E00E94A8
S1130900490069858AE00E9449006A858BE00E945B
S1130910490082E090E00E9420060E94CD032B81D2
S11309203C814D815E8188EE93E0DC010E941207D8
S11309309B01AC018B859C85AD85BE85821B930B89
S1130940A40BB50B8B879C87AD87BE8782E08A8317
S11309508B859C85AD85BE8584369105A105B10541
S113096048F08B859C85AD85BE85883E9340A10566
S1130970B10520F08A81823009F06DC08EE10E94B9
S1130980BE038B859C85AD85BE8524E630E040E0C2
S113099050E0BC01CD010E94F006DA01C9018B834D
S11309A09C83AD83BE838B8181708F838B819C817B
S11309B0AD81BE81B695A7959795879581708887F7
S11309C08B819C81AD81BE81B695A79597958795BE
S11309D0B695A79597958795817089878B819C811A
S11309E0AD81BE81689412F8B695A79597958795C1
S11309F01694D1F781708A876F8188E00E9449003C
S1130A00688589E00E94490069858AE00E9449005E
S1130A106A858BE00E94490085E090E00E942006F0
S1130A200E94CD032B813C814D815E8184E690E060
S1130A30DC010E9412079B01AC018B859C85AD856E
S1130A40BE85821B930BA40BB50B8B879C87AD874C
S1130A50BE8781E08A838B859C85AD85BE850A9798
S1130A60A105B10548F08B859C85AD85BE8584368E
S1130A709105A105B10520F08A81813009F07BC080
S1130A808BE10E94BE038B859C85AD85BE852AE0E3
S1130A9030E040E050E0BC01CD010E94F006DA01F4
S1130AA0C9018B839C83AD83BE838B8181708F83CB
S1130AB08B819C81AD81BE81B695A79597958795CD
S1130AC0817088878B819C81AD81BE81B695A79505
S1130AD097958795B695A7959795879581708987FA
S1130AE08B819C81AD81BE81689412F8B695A795DF
S1130AF0979587951694D1F781708A876F8188E0DE
S1130B000E944900688589E00E94490069858AE05D
S1130B100E9449006A858BE00E94490082E090E0CF
S1130B200E9420060E94CD038B819C81AD81BE81F1
S1130B30880F991FAA1FBB1F9C01AD01220F331FF1
S1130B40441F551F220F331F441F551F820F931F2D
S1130B50A41FB51F2B853C854D855E8579018A01CF
S1130B60E81AF90A0A0B1B0BD801C7018B879C876B
S1130B70AD87BE871A828B859C85AD85BE850A9715
S1130B80A105B10508F047C08A81882309F043C054
S1130B908AE10E94BE038B8581708F838B859C853F
S1130BA0AD85BE85B695A7959795879581708887FD
S1130BB08B859C85AD85BE85B695A79597958795BC
S1130BC0B695A79597958795817089878B859C8520
S1130BD0AD85BE85689412F8B695A79597958795C7
S1130BE01694D1F781708A876F8188E00E9449004A
S1130BF0688589E00E94490069858AE00E9449006D
S1130C006A858BE00E94490082E090E00E94200601
S1130C100E94CD0307C089819FEF980F9983882391
S1130C2009F015CE00002E960FB6F894DEBF0FBE65
S1130C30CDBFDF91CF911F910F91FF90EF90089559
S1130C40CF93DF9300D0CDB7DEB79A838983109218
S1130C506D0010926C0085E490E0FC01108289E53F
S1130C6090E029E530E0F90120812068FC0120832F
S1130C7085E490E025E430E0F90120812E7FFC0139
S1130C80208385E490E025E430E0F90120812D7F84
S1130C90FC01208385E490E025E430E0F901208123
S1130CA02460FC01208385E490E025E430E0F90130
S1130CB020812F7EFC01208385E490E025E430E050
S1130CC0F90120812F7DFC01208385E490E025E457
S1130CD030E0F90120812F7BFC01208385E490E042
S1130CE025E430E0F90120812860FC01208385E4BB
S1130CF090E025E430E0F90120812068FC012083A4
S1130D0083E490E029EFFC012083000080916C00D3
S1130D1090916D0029813A8128173907B9F710920B
S1130D206D0010926C0000000F900F90DF91CF9136
S1130D3008951F920F9200905F000F9211242F9339
S1130D403F934F935F936F937F938F939F93AF934F
S1130D50BF93EF93FF93CF93DF93CDB7DEB780912B
S1130D606A0090916B00892B31F080916A00909118
S1130D706B00FC0109950000DF91CF91FF91EF9189
S1130D80BF91AF919F918F917F916F915F914F919F
S1130D903F912F910F9000925F000F901F90189534
S1130DA01F920F9200905F000F9211248F939F93D4
S1130DB0CF93DF93CDB7DEB780916C0090916D0037
S1130DC0019690936D0080936C000000DF91CF91A9
S1130DD09F918F910F9000925F000F901F90189534
S1130DE0A1E21A2EAA1BBB1BFD010DC0AA1FBB1F2B
S1130DF0EE1FFF1FA217B307E407F50720F0A21B9D
S1130E00B30BE40BF50B661F771F881F991F1A9409
S1130E1069F760957095809590959B01AC01BD0133
S1130E20CF0108950E941D07A59F900DB49F900DBA
S1130E30A49F800D911D11240895A29FB001B39F1A
S1130E40C001A39F700D811D1124911DB29F700DCF
S10F0E50811D1124911D0895F894FFCF1A
S10D0E5C010203040506070809005B
S9030000FC
