:100000000C942A000C943C000C943C000C943C0092
:100010000C943C000C943C000C943C000C943C0070
:100020000C943C000C943C000C948C010C943C000F
:100030000C943C000C943C000C943C000C943C0050
:100040000C943C000C943C000C943C000C943C0040
:100050000C943C0011241FBECFE5D8E0DEBFCDBF1D
:1000600020E0A0E6B0E001C01D92A436B207E1F79F
:100070000E9450010C94B1010C9400008830F8F4F7
:10008000613069F421E030E0A90102C0440F551F3E
:100090008A95E2F7CA019BB3892B8BBB0895611146
:1000A00075C021E030E0A90102C0440F551F8A95B8
:1000B000E2F7CA0180959BB389238BBB089598EF23
:1000C000980F9830F8F4613069F421E030E0A9012C
:1000D00002C0440F551F9A95E2F7CA0198B3892BC5
:1000E00088BB0895611152C021E030E0A90102C02F
:1000F000440F551F9A95E2F7CA01809598B389235A
:1001000088BB089590EF980F9830F8F4613069F447
:1001100021E030E0A90102C0440F551F9A95E2F793
:10012000CA0195B3892B85BB089561112FC021E0C9
:1001300030E0A90102C0440F551F9A95E2F7CA01A9
:10014000809595B3892385BB089588518830F0F454
:10015000613069F421E030E0A90102C0440F551F6D
:100160008A95E2F7CA0192B3892B82BB0895611187
:100170000DC021E030E0A90102C0440F551F8A954F
:10018000E2F7CA01809592B3892382BB0895883033
:10019000F8F4613069F421E030E0A90102C0440FB5
:1001A000551F8A95E2F7CA019AB3892B8ABB089535
:1001B000611175C021E030E0A90102C0440F551F54
:1001C0008A95E2F7CA0180959AB389238ABB08957C
:1001D00098EF980F9830F8F4613069F421E030E03E
:1001E000A90102C0440F551F9A95E2F7CA0197B3BF
:1001F000892B87BB0895611152C021E030E0A9012D
:1002000002C0440F551F9A95E2F7CA01809597B333
:10021000892387BB089590EF980F9830F8F46130E8
:1002200069F421E030E0A90102C0440F551F9A95FE
:10023000E2F7CA0194B3892B84BB089561112FC0E2
:1002400021E030E0A90102C0440F551F9A95E2F762
:10025000CA01809594B3892384BB0895885188305E
:10026000F0F4613069F421E030E0A90102C0440FEC
:10027000551F8A95E2F7CA0191B3892B81BB089576
:1002800061110DC021E030E0A90102C0440F551FEB
:100290008A95E2F7CA01809591B3892381BB0895BD
:1002A00061E08CE00E94C70061E08CE00E943E00AB
:1002B00061E08CE00E943E0068EE73E080E090E038
:1002C0000E946D0160E08CE00E943E0068EE73E0E9
:1002D00080E090E00E946D01EBCF13BE2AEF2CBFAF
:1002E000609360007093610080936200909363005C
:1002F00089B7826089BF789412BE8BE883BF8091F2
:10030000600090916100A0916200B091630000973D
:10031000A105B105E1F708951F920F920FB60F9254
:1003200011248F939F93AF93BF938091600090911E
:100330006100A0916200B09163000197A109B10929
:100340008093600090936100A0936200B09363007B
:10035000BF91AF919F918F910F900FBE0F901F9003
:060360001895F894FFCF90
:00000001FF
