:100000000C9434000C9446000C9446000C9446006A
:100010000C9446000C9446000C9446000C94460048
:100020000C9446000C9446000C9446000C94460038
:100030000C9446000C9446000C9446000C94460028
:100040000C9446000C9446000C9446000C94460018
:100050000C9446000C9446000C9446000C94460008
:100060000C9446000C94460011241FBECFEFD8E03C
:10007000DEBFCDBF21E0A0E0B1E001C01D92A03005
:10008000B207E1F70E9436020C9401040C940000C0
:10009000CF93DF9300D0CDB7DEB789836A838981A0
:1000A0008830C0F189818031A8F5898188508983A1
:1000B0008A818130A9F488E390E028E330E0F901F7
:1000C0002081622F2981422F50E021E030E002C0E0
:1000D000220F331F4A95E2F7262BFC012083C4C070
:1000E0008A81882309F0C0C088E390E028E330E0EB
:1000F000F9012081622F2981422F50E021E030E078
:1001000002C0220F331F4A95E2F720952623FC01F7
:100110002083AAC089818031C0F189818831A8F506
:100120008981805189838A818130A9F485E390E0B7
:1001300025E330E0F9012081622F2981422F50E030
:1001400021E030E002C0220F331F4A95E2F7262B50
:10015000FC0120838BC08A81882309F087C085E356
:1001600090E025E330E0F9012081622F2981422FC0
:1001700050E021E030E002C0220F331F4A95E2F741
:1001800020952623FC01208371C089818831C0F12C
:1001900089818032A8F58981885189838A8181305B
:1001A000A9F482E390E022E330E0F9012081622F9C
:1001B0002981422F50E021E030E002C0220F331F9E
:1001C0004A95E2F7262BFC01208352C08A818823BE
:1001D00009F04EC082E390E022E330E0F901208193
:1001E000622F2981422F50E021E030E002C0220F2F
:1001F000331F4A95E2F720952623FC01208338C05F
:1002000089818730B0F58A818130A9F48BE390E051
:100210002BE330E0F9012081622F2981422F50E049
:1002200021E030E002C0220F331F4A95E2F7262B6F
:10023000FC0120831EC08A818823D9F48BE390E0DF
:100240002BE330E0F9012081622F2981422F50E019
:1002500021E030E002C0220F331F4A95E2F72095DB
:100260002623FC01208305C0000003C0000001C05C
:10027000000000000F900F90DF91CF910895CF9371
:10028000DF9300D0CDB7DEB789836A838981883058
:10029000C0F189818031A8F58981885089838A815C
:1002A0008130A9F487E390E027E330E0F901208171
:1002B000622F2981422F50E021E030E002C0220F5E
:1002C000331F4A95E2F7262BFC012083C4C08A81A4
:1002D000882309F0C0C087E390E027E330E0F9010C
:1002E0002081622F2981422F50E021E030E002C0BE
:1002F000220F331F4A95E2F720952623FC01208325
:10030000AAC089818031C0F189818831A8F58981AD
:10031000805189838A818130A9F484E390E024E3C9
:1003200030E0F9012081622F2981422F50E021E045
:1003300030E002C0220F331F4A95E2F7262BFC0162
:1003400020838BC08A81882309F087C084E390E0F2
:1003500024E330E0F9012081622F2981422F50E00F
:1003600021E030E002C0220F331F4A95E2F72095CA
:100370002623FC01208371C089818831C0F18981E5
:100380008032A8F58981885189838A818130A9F4D6
:1003900081E390E021E330E0F9012081622F29819F
:1003A000422F50E021E030E002C0220F331F4A9577
:1003B000E2F7262BFC01208352C08A81882309F0B2
:1003C0004EC081E390E021E330E0F9012081622F0B
:1003D0002981422F50E021E030E002C0220F331F7C
:1003E0004A95E2F720952623FC01208338C08981B5
:1003F0008730B0F58A818130A9F48AE390E02AE35E
:1004000030E0F9012081622F2981422F50E021E064
:1004100030E002C0220F331F4A95E2F7262BFC0181
:1004200020831EC08A818823D9F48AE390E02AE3DE
:1004300030E0F9012081622F2981422F50E021E034
:1004400030E002C0220F331F4A95E2F720952623A1
:10045000FC01208305C0000003C0000001C00000B3
:1004600000000F900F90DF91CF910895CF93DF930D
:1004700000D0CDB7DEB761E08CE10E943F0161E0C2
:100480008AE10E943F0161E08BE10E943F0161E04F
:100490008DE10E943F0161E08EE10E943F0161E039
:1004A0008FE10E943F010E9442031A8219828A81D1
:1004B000882319F489818F5F89838A81813019F4B7
:1004C00089818150898389810E94DC0289810E940F
:1004D0000F0361E08AE10E94480060E08BE10E9426
:1004E000480061E08EE10E94480060E08FE10E94D8
:1004F000480064E670E080E090E00E948002D7CF80
:10050000CF93DF93CDB7DEB728970FB6F894DEBF51
:100510000FBECDBF6D837E838F83988719821A8229
:100520001B821C8283E590E0FC0110828CE590E048
:100530002AEFFC01208383E590E02BE8FC01208377
:1005400082E590E0FC01108220C0000088E590E088
:10055000FC0180818695882F90E081709927892BF6
:10056000A9F388E590E028E530E0F90120812260D8
:10057000FC01208389819A81AB81BC810196A11DF8
:10058000B11D89839A83AB83BC8329813A814B81D6
:100590005C818D819E81AF81B885281739074A0714
:1005A0005B0798F2000028960FB6F894DEBF0FBEE6
:1005B000CDBFDF91CF910895CF93DF9300D01F92ED
:1005C000CDB7DEB78B838B81853610F58B81282FD5
:1005D00030E08FEF93E0289FA001299F500D389FB6
:1005E000500D112424E630E0CA01B9010E94D9035C
:1005F000CB019A8389838BE490E029813A81232F70
:100600003327FC0120838AE490E02981FC012083C8
:1006100000000F900F900F90DF91CF910895CF932E
:10062000DF9300D01F92CDB7DEB78B838B818536E9
:1006300010F58B81282F30E08FEF93E0289FA001E9
:10064000299F500D389F500D112424E630E0CA0137
:10065000B9010E94D903CB019A83898389E490E090
:1006600029813A81232F3327FC01208388E490E0FD
:100670002981FC01208300000F900F900F90DF91E3
:10068000CF910895CF93DF93CDB7DEB78FE490E09D
:100690002FE430E0F90120812160FC0120838FE408
:1006A00090E02FE430E0F90120812260FC012083FA
:1006B0008FE490E02FE430E0F90120812B7FFC01F2
:1006C00020838FE490E02FE430E0F9012081277F40
:1006D000FC0120838FE490E02FE430E0F9012081D9
:1006E0002F7EFC0120838FE490E02FE430E0F901BD
:1006F00020812062FC0120838FE490E02FE430E031
:10070000F90120812F7BFC0120838FE490E02FE40E
:1007100030E0F90120812068FC0120838EE490E024
:100720002EE430E0F90120812160FC0120838EE479
:1007300090E02EE430E0F90120812D7FFC01208340
:100740008EE490E02EE430E0F90120812B7FFC0163
:1007500020838EE490E02EE430E0F90120812860CF
:10076000FC0120838EE490E02EE430E0F90120814A
:100770002F7EFC0120838EE490E02EE430E0F9012E
:1007800020812F7BFC0120838EE490E02EE430E07A
:10079000F90120812F77FC0120838DE490E0FC019A
:1007A00010828CE490E0FC0110820000DF91CF9178
:1007B000089597FB072E16F4009407D077FD09D013
:1007C0000E94ED0307FC05D03EF4909581959F4F64
:1007D0000895709561957F4F0895AA1BBB1B51E149
:1007E00007C0AA1FBB1FA617B70710F0A61BB70BA1
:1007F000881F991F5A95A9F780959095BC01CD0146
:060800000895F894FFCFFB
:00000001FF
